:0300000002000EED
:0C000E00787FE4F6D8FD75810A020055E9
:09014F00010901010A0001080088
:10011000120129E4F580AF0A12013D7580FFC37416
:0901200064950AFF12013D80EA1A
:10013D00AD071FED600BE4FEEEC3940150F20E808F
:01014D00F7BA
:01014E00228E
:10012900758901758CD8758AF0D28CD2A9D288D2FA
:04013900A8D2AF2277
:03000B000200E709
:0400E700C0E0C0D0E5
:1000EB00E5096016E508700C050AE50AB4640B75A2
:1000FB0008018006D50A03750800758CD8758AF03F
:05010B00D0D0D0E0326D
:0300030002009A5E
:0D009A00C0E0C0D075D000C005C006C00792
:1000A700E50960057509008003750901E4FF75809E
:1000B70000E4FEEED3950A50030E80F77580FF7EAD
:1000C70000C37464950AFDEED39D50030E80F20FB2
:0500D700BFFFDBC28940
:0B00DC00D007D006D005D0D0D0E03215
:10001A00020110E493A3F8E493A34003F68001F2EB
:10002A0008DFF48029E493A3F85407240CC8C333E7
:10003A00C4540F4420C8834004F456800146F6DFB6
:10004A00E4800B010204081020408090014FE47EF6
:10005A00019360BCA3FF543F30E509541FFEE493AB
:10006A00A360010ECF54C025E060A840B8E493A372
:10007A00FAE493A3F8E493A3C8C582C8CAC583CA9D
:10008A00F0A3C8C582C8CAC583CADFE9DEE780BE55
:0101580000A6
:00000001FF
