:0300000002000EED
:0C000E00787FE4F6D8FD758108020055EB
:0300C6000108002E
:08000300E4F5A01200B680FE36
:1000B600758901758C3D758AB0D2AFD2A9D28C22D2
:03000B0002009A56
:04009A00C0E0C0D032
:10009E00758C3D758AB00508E508B4140663A0FF9B
:0300AE00750800D2
:0500B100D0D0D0E032C8
:10001A00020003E493A3F8E493A34003F68001F2F9
:10002A0008DFF48029E493A3F85407240CC8C333E7
:10003A00C4540F4420C8834004F456800146F6DFB6
:10004A00E4800B01020408102040809000C6E47E80
:10005A00019360BCA3FF543F30E509541FFEE493AB
:10006A00A360010ECF54C025E060A840B8E493A372
:10007A00FAE493A3F8E493A3C8C582C8CAC583CA9D
:10008A00F0A3C8C582C8CAC583CADFE9DEE780BE55
:0100C9000036
:00000001FF
