:030000000200DE1D
:0C00DE00787FE4F6D8FD75810E02000367
:100096007FBFDFEFF7FBFDFE004224181824420065
:1000A60000007E12120C0000007E201008047E0064
:0800B60000007F4949360000FB
:10000300E4F509E4F50AE4F508E50890009693F5AC
:10001300A090009E1200660508E508C3940840E915
:10002300050AE50AC3941E40DD0509E509C39418D2
:1000330040D1750918E50960C7E4F50AE4F508E558
:100043000890009693F5A090009D1200660508E5C0
:1000530008C3940840E9050AE50AC3941E40DD1568
:030063000980D23F
:0F006600E508250993F5807F017E007D007C0071
:080075008F0E8E0D8D0C8C0B1B
:10007D00780B74FF1200C0EC4D4E4F600BE4FBEBA0
:08008D00C3945550EB0B80F702
:010095002248
:1000BE007401FF3395E0FEFDFC080808E6CF2FF62D
:1000CE0018E6CE3EF618E6CD3DF618E6CC3CF62206
:00000001FF
