:030000000200B04B
:0C00B000787FE4F6D8FD75810702009D02
:0C007700FFE5A0F42FF4F5A07FE87E0365
:10008300EF4E6015E4FDFC0DBD00010CED641E4C4C
:0900930070F5EF1F70EA1E80E712
:01009C002241
:10000300EF24FE601B14602614603B146055240427
:1000130070617B01EB605C12007CEB25E0FB80F4FC
:100023007B80EB604E12007CEBC313FB80F475A066
:10003300FFE4FB7401A803088002C333D8FC120059
:10004300770BBB08EE2275A0FFE4FBC374079BFF8D
:100053007401A807088002C333D8FC1200770BBBD6
:1000630008E9227B01E412007D75A0FF12007F0BDB
:03007300BB06F2D7
:010076002267
:10009D00900001AF82120003A3E5826406458370D0
:0300AD00F280EDF1
:00000001FF
