:030000000201C931
:0C01C900787FE4F6D8FD75812902021051
:08028E0000000A00000A000054
:100276000B103F065B4F666D7D077F6F4008087F5A
:07028600BFDFEFF7FBFDFEF7
:10011900E4F51D781E7C00FD7BFF7A02798EFE7F57
:10012900081200D3051CE51CD394464046E4F51C8F
:10013900051EE51E640A703BF51E051FE51F6406D2
:100149007031F51F0521E521640A7027F521052283
:10015900E522B4061EE4F5220524E525B4020AE5E4
:1001690024B40405E4F525F524E524B40A05E4F5E9
:10017900240525E51D700B20A008751D01751CC8F7
:1001890080A2E51DB4010630A003E4F51DE4F51BCA
:10019900E51BC39408508D7408251BF8E6F5B0C318
:1001A9007407951B241EF8E62410F8E6F5807F02F3
:1001B9007E007D007C00120255E4F580051B80D08D
:080255008F298E288D278C26CD
:10025D00782674FF1200FBEC4D4E4F600BE4FBEB68
:08026D00C3945550EB0B80F720
:010275002266
:1001D500020119E493A3F8E493A34003F68001F226
:1001E50008DFF48029E493A3F85407240CC8C3332B
:1001F500C4540F4420C8834004F456800146F6DFFA
:10020500E4800B0102040810204080900276E47E11
:10021500019360BCA3FF543F30E509541FFEE493EE
:10022500A360010ECF54C025E060A840B8E493A3B5
:10023500FAE493A3F8E493A3C8C582C8CAC583CAE0
:10024500F0A3C8C582C8CAC583CADFE9DEE780BE98
:01028D000070
:10000300E709F608DFFA8046E709F208DFFA803EDF
:1000130088828C83E709F0A3DFFA8032E309F608CC
:10002300DFFA8078E309F208DFFA807088828C8334
:10003300E309F0A3DFFA806489828A83E0A3F608E8
:10004300DFFA805889828A83E0A3F208DFFA804CC2
:1000530080D280FA80C680D4806980F28033801099
:1000630080A680EA809A80A880DA80E280CA803302
:1000730089828A83ECFAE493A3C8C582C8CCC5837A
:10008300CCF0A3C8C582C8CCC583CCDFE9DEE7804A
:100093000D89828A83E493A3F608DFF9ECFAA9F0C9
:1000A300EDFB2289828A83ECFAE0A3C8C582C8CC1F
:1000B300C583CCF0A3C8C582C8CCC583CCDFEADE38
:1000C300E880DB89828A83E493A3F208DFF980CC9A
:1000D30088F0EF60010E4E60C388F0ED2402B40493
:1000E3000050B9F582EB2402B4040050AF2323453A
:0600F3008223900053730C
:1000F9007401FF3395E0FEFDFC080808E6CF2FF6F2
:1001090018E6CE3EF618E6CD3DF618E6CC3CF622CA
:00000001FF
