:03000000020212E7
:0C021200787FE4F6D8FD758134020259B3
:10031F000B153F065B4F666D7D077F6F40080D7FA6
:10032F00BFDFEFF7FBFDFE04080000000008200010
:0A033F00000A00000A0000010C0192
:100016001203D5E47B0AFAF9F8AF0BAE0AAD09ACC8
:1000260008120160AF038F27E47B64FAF9F8AF0B7F
:10003600AE0AAD09AC08120160AC00AD01AE02AF6C
:1000460003E47B0AFAF9F81201608F26E47B64FA6E
:10005600F9F8AF0BAE0AAD09AC08120160E47B0AF1
:10006600FAF9F8120160AF038F24E47B64FAF9F819
:10007600AF0BAE0AAD09AC08120160E47B64FAF975
:10008600F8120160AC00AD01AE02AF03E47B0AFAE0
:10009600F9F81201608F23E47B64FAF9F8AF0BAE2E
:1000A6000AAD09AC08120160E47B3CFAF9F81201CA
:1000B60060E47B0AFAF9F8120160AF038F21E47B52
:1000C60064FAF9F8AF0BAE0AAD09AC08120160E4A8
:1000D6007B3CFAF9F8120160E47B0AFAF9F812019E
:1000E600608F20E520B40603E4F520E4F528E52832
:1000F600C394084003020019740D2528F8E6F5A0FC
:1001060074202528F8E62415F8E6F5807F017E00A0
:0E0116007D007C001203B4E4F580052880D043
:080372008F308E2F8D2E8C2D93
:10037A00782D74FF1201F4EC4D4E4F600BE4FBEB49
:08038A00C3945550EB0B80F702
:010392002248
:080393008F348E338D328C3162
:10039B00783174FF1201F4EC4D4E4F600BE4FBEB24
:0803AB00C3945550EB0B80F7E1
:0103B3002227
:0803B4008F2C8E2B8D2A8C2961
:1003BC00782974FF1201F4EC4D4E4F600BE4FBEB0B
:0803CC00C3945550EB0B80F7C0
:0103D4002206
:1003D500758901758CD8758AF0D28CD2A9D288D24C
:0803E500A8D28AD2AAD2AF22ED
:03000B0002034AA3
:10034A00C0E0C0D0E50C6015E50B2401F50BE435DF
:10035A000AF50AE43509F509E43508F508758CD873
:08036A00758AF0D0D0D0E0321A
:030003000202DF17
:1002DF00C0E0C0D075D000C000C003C004C005C0CE
:1002EF0006C007758000750B00750A00750900754B
:1002FF0008007FF47E017D007C00120372C289D05A
:10030F0007D006D005D004D003D000D0D0D0E03233
:0300130002029E48
:10029E00C0E0C0D075D000C000C003C004C005C00F
:1002AE0006C007758000E50CB40105750C008003CF
:1002BE00750C017FF47E017D007C00120393C28BCE
:1002CE00D007D006D005D004D003D000D0D0D0E0D7
:0102DE0032ED
:10021E00020016E493A3F8E493A34003F68001F2E0
:10022E0008DFF48029E493A3F85407240CC8C333E1
:10023E00C4540F4420C8834004F456800146F6DFB0
:10024E00E4800B010204081020408090031FE47E1E
:10025E00019360BCA3FF543F30E509541FFEE493A5
:10026E00A360010ECF54C025E060A840B8E493A36C
:10027E00FAE493A3F8E493A3C8C582C8CAC583CA97
:10028E00F0A3C8C582C8CAC583CADFE9DEE780BE4F
:0103490000B3
:1001240075F008758200EF2FFFEE33FECD33CDCC92
:1001340033CCC58233C5829BED9AEC99E582984015
:100144000CF582EE9BFEED9AFDEC99FC0FD5F0D6F2
:10015400E4CEFBE4CDFAE4CCF9A88222B800C1B91C
:100164000059BA002DEC8BF084CFCECDFCE5F0CB5A
:10017400F97818EF2FFFEE33FEED33FDEC33FCEB93
:1001840033FB10D703994004EB99FB0FD8E5E4F94E
:10019400FA227818EF2FFFEE33FEED33FDEC33FC3B
:1001A400C933C910D7059BE99A4007EC9BFCE99A2F
:1001B400F90FD8E0E4C9FAE4CCFB2275F010EF2F74
:1001C400FFEE33FEED33FDCC33CCC833C810D70774
:1001D4009BEC9AE899400AED9BFDEC9AFCE899F8AF
:0E01E4000FD5F0DAE4CDFBE4CCFAE4C8F92242
:1001F2007401FF3395E0FEFDFC080808E6CF2FF6F8
:1002020018E6CE3EF618E6CD3DF618E6CC3CF622D0
:00000001FF
