:03000000020003F8
:0C000300787FE4F6D8FD75811602004AF3
:0A01260008087FBFDFEFF7FBFDFEC6
:10008F00E4F510E4F512E4F51174082511F8E6F51E
:10009F0080C3740A9510FDE49400FCE51175F0021D
:1000AF00A42DFFE5F03CFEE4FCFD1200E57580FF9A
:1000BF00AF10E4FCFDFE1200E50511E511C3940835
:1000CF0040C70512E512C3940540BB0510E510C3E8
:0600DF00940A40AF80AA64
:0800E5008F168E158D148C138B
:1000ED00781374FF120108EC4D4E4F600BE4FBEBDF
:0800FD00C3940150EB0B80F7E6
:0101050022D7
:10000F0002008FE493A3F8E493A34003F68001F278
:10001F0008DFF48029E493A3F85407240CC8C333F2
:10002F00C4540F4420C8834004F456800146F6DFC1
:10003F00E4800B0102040810204080900126E47E2A
:10004F00019360BCA3FF543F30E509541FFEE493B6
:10005F00A360010ECF54C025E060A840B8E493A37D
:10006F00FAE493A3F8E493A3C8C582C8CAC583CAA8
:10007F00F0A3C8C582C8CAC583CADFE9DEE780BE60
:0101300000CE
:100106007401FF3395E0FEFDFC080808E6CF2FF6E4
:1001160018E6CE3EF618E6CD3DF618E6CC3CF622BD
:00000001FF
