:030000000200EE0D
:0C00EE00787FE4F6D8FD75810E02005CFE
:100003008040201008040201FFBDDBE7E7DBBDFFF2
:10001300DFDFC7DBDBE7FFFFBD9DADB5B9BDFF8705
:10002300BBBB87BBBB87FFFFFFFFFFFFFFFFFFFFDD
:10003300FFFFFFFFFFFFFFFFFFFFFFFFFFFFFFFFCD
:10004300FFFFFFFFFFFFFFFFFFFFFFFFFFFFFFFFBD
:09005300FFFFFFFFFFFFFFFFFFAD
:10005C00E4F509E4F50AE4F508E50890000393F5E6
:10006C0080E5082509FF90000B93F5A0EF90005B4D
:10007C0093F5B07F017E007D007C001200AD75A071
:10008C00FF75B0FF0508E508C3940840CC050AE5E8
:10009C000AC3941E40C00509E509C3944840B480C6
:0100AC00AFA4
:0800AD008F0E8E0D8D0C8C0BE3
:1000B500780B74FF1200D0EC4D4E4F600BE4FBEB58
:0800C500C3945550EB0B80F7CA
:0100CD002210
:1000CE007401FF3395E0FEFDFC080808E6CF2FF61D
:1000DE0018E6CE3EF618E6CD3DF618E6CC3CF622F6
:00000001FF
