:0300000002017B7F
:0C017B00787FE4F6D8FD75811F020119A1
:10016700C0F9A4B0999282F880908883C6A1868E40
:040177008909890960
:080146008F1F8E1E8D1D8C1C05
:10014E00781C74FF1200FBEC4D4E4F600BE4FBEB82
:08015E00C394AA50EB0B80F7DB
:010166002276
:1001190078087C007D007BFF7A0179677E007F1477
:100129001200D3E4FA74082AF8E6F5807FF47E0118
:0D0139007D007C001201460ABA13EA80E640
:10000300E709F608DFFA8046E709F208DFFA803EDF
:1000130088828C83E709F0A3DFFA8032E309F608CC
:10002300DFFA8078E309F208DFFA807088828C8334
:10003300E309F0A3DFFA806489828A83E0A3F608E8
:10004300DFFA805889828A83E0A3F208DFFA804CC2
:1000530080D280FA80C680D4806980F28033801099
:1000630080A680EA809A80A880DA80E280CA803302
:1000730089828A83ECFAE493A3C8C582C8CCC5837A
:10008300CCF0A3C8C582C8CCC583CCDFE9DEE7804A
:100093000D89828A83E493A3F608DFF9ECFAA9F0C9
:1000A300EDFB2289828A83ECFAE0A3C8C582C8CC1F
:1000B300C583CCF0A3C8C582C8CCC583CCDFEADE38
:1000C300E880DB89828A83E493A3F208DFF980CC9A
:1000D30088F0EF60010E4E60C388F0ED2402B40493
:1000E3000050B9F582EB2402B4040050AF2323453A
:0600F3008223900053730C
:1000F9007401FF3395E0FEFDFC080808E6CF2FF6F2
:1001090018E6CE3EF618E6CD3DF618E6CC3CF622CA
:00000001FF
