:03000000020222D7
:0C022200787FE4F6D8FD75812B0202699C
:1002AE000B1D3F065B4F666D7D077F6F4008107F0D
:1002BE00BFDFEFF7FBFDFE0418000000000808008A
:0702CE00000A00000A000015
:10000E0012031BE47B3CFAF9F8AF1BAE1AAD19AC28
:10001E0018120170AC00AD01AE02AF03E47B0AFA18
:10002E00F9F8120170AF038F0FE47B3CFAF9F8AFC9
:10003E001BAE1AAD19AC18120170AC00AD01AE02B8
:10004E00AF03E47B0AFAF9F81201708F0EE47B3CE1
:10005E00FAF9F8AF1BAE1AAD19AC18120170E47BA9
:10006E003CFAF9F8120170AC00AD01AE02AF03E438
:10007E007B0AFAF9F8120170AF038F0CE47B3CFA9D
:10008E00F9F8AF1BAE1AAD19AC18120170E47B3C37
:10009E00FAF9F8120170AC00AD01AE02AF03E47BC9
:1000AE000AFAF9F81201708F0BE47B3CFAF9F8AFFB
:1000BE001BAE1AAD19AC18120170E47B3CFAF9F8BC
:1000CE00120170E47B0AFAF9F8120170AF038F097E
:1000DE00E47B3CFAF9F8AF1BAE1AAD19AC1812015D
:1000EE0070E47B3CFAF9F8120170E47B0AFAF9F835
:1000FE001201708F08E4F51C7410251CF8E6F5A0AB
:10010E007408251CF8E6241DF8E6F5807F017E00B4
:10011E007D007C001202FAE4F580051CE51CC394F8
:06012E000840D50200119B
:10031B00D2A9D28C758901D2AF758CC8758AF0229F
:0802FA008F2B8E2A8D298C2820
:10030200782874FF120204EC4D4E4F600BE4FBEBB5
:08031200C3945550EB0B80F77A
:01031A0022C0
:03000B000202D618
:1002D600C0E0C0D0758CC8758AF0E51B2401F51BFB
:1002E600E4351AF51AE43519F519E43518F518D078
:0402F600D0D0E03252
:10022E0002000EE493A3F8E493A34003F68001F2D8
:10023E0008DFF48029E493A3F85407240CC8C333D1
:10024E00C4540F4420C8834004F456800146F6DFA0
:10025E00E4800B01020408102040809002AEE47E80
:10026E00019360BCA3FF543F30E509541FFEE49395
:10027E00A360010ECF54C025E060A840B8E493A35C
:10028E00FAE493A3F8E493A3C8C582C8CAC583CA87
:10029E00F0A3C8C582C8CAC583CADFE9DEE780BE3F
:0102D5000028
:1001340075F008758200EF2FFFEE33FECD33CDCC82
:1001440033CCC58233C5829BED9AEC99E582984005
:100154000CF582EE9BFEED9AFDEC99FC0FD5F0D6E2
:10016400E4CEFBE4CDFAE4CCF9A88222B800C1B90C
:100174000059BA002DEC8BF084CFCECDFCE5F0CB4A
:10018400F97818EF2FFFEE33FEED33FDEC33FCEB83
:1001940033FB10D703994004EB99FB0FD8E5E4F93E
:1001A400FA227818EF2FFFEE33FEED33FDEC33FC2B
:1001B400C933C910D7059BE99A4007EC9BFCE99A1F
:1001C400F90FD8E0E4C9FAE4CCFB2275F010EF2F64
:1001D400FFEE33FEED33FDCC33CCC833C810D70764
:1001E4009BEC9AE899400AED9BFDEC9AFCE899F89F
:0E01F4000FD5F0DAE4CDFBE4CCFAE4C8F92232
:100202007401FF3395E0FEFDFC080808E6CF2FF6E7
:1002120018E6CE3EF618E6CD3DF618E6CC3CF622C0
:00000001FF
