:0300000002000EED
:0C000E00787FE4F6D8FD75810E020055E5
:07016600010E01020C000074
:08015E00E4F5A012014A80FE45
:080109008F0B8E0A8D098C0892
:10011100780874FF12012CEC4D4E4F600BE4FBEBA1
:08012100C3945550EB0B80F76D
:0101290022B3
:10014A00758901758C3D758AB0D28CD2A9D288D2B4
:04015A00A8D2AF2256
:03000B000200D719
:0900D700C0E0C0D075D000C000EB
:1000E000758C3C758AB0050DE50D7002050CD39535
:1000F0000E7480F8650C98400963A0FF750C0075BC
:020100000D00F0
:07010200D000D0D0D0E032A4
:0300030002009A5E
:10009A00C0E0C0D075D000C000C003C004C005C015
:1000AA0006C007050EE50ED3940A4003750E017FBC
:1000BA00647E007D007C00120109C289D007D00647
:0D00CA00D005D004D003D000D0D0D0E0325B
:10001A0002015EE493A3F8E493A34003F68001F29D
:10002A0008DFF48029E493A3F85407240CC8C333E7
:10003A00C4540F4420C8834004F456800146F6DFB6
:10004A00E4800B0102040810204080900166E47EDF
:10005A00019360BCA3FF543F30E509541FFEE493AB
:10006A00A360010ECF54C025E060A840B8E493A372
:10007A00FAE493A3F8E493A3C8C582C8CAC583CA9D
:10008A00F0A3C8C582C8CAC583CADFE9DEE780BE55
:01016D000091
:10012A007401FF3395E0FEFDFC080808E6CF2FF6C0
:10013A0018E6CE3EF618E6CD3DF618E6CC3CF62299
:00000001FF
