:03000000020003F8
:0C000300787FE4F6D8FD75811C02004AED
:100148001108C0F9A4B0999282F880908883C6A15A
:03015800868E8E02
:1001330012008F74082FF8E6F5807F327E007D0071
:050143007C000200F247
:0800F2008F1C8E1B8D1A8C1966
:1000FA00781974FF120115EC4D4E4F600BE4FBEBBF
:08010A00C3945550EB0B80F784
:0101120022CA
:10008F00E4FF75A0F0AEA0BEF003D38001C34050D3
:10009F00AEA0EE2450601024E0601024F060102415
:1000AF0070700EE4FF800A7F0480067F0880027F55
:1000BF000C75A00FAEA0BE0F03D38001C34021AEBD
:1000CF00A0EE24F5601024FE601114601224077056
:1000DF000FEF24FDFF22EF24FEFF22EF14FF222259
:0200EF007F0090
:0100F10022EC
:10000F00020133E493A3F8E493A34003F68001F2D3
:10001F0008DFF48029E493A3F85407240CC8C333F2
:10002F00C4540F4420C8834004F456800146F6DFC1
:10003F00E4800B0102040810204080900148E47E08
:10004F00019360BCA3FF543F30E509541FFEE493B6
:10005F00A360010ECF54C025E060A840B8E493A37D
:10006F00FAE493A3F8E493A3C8C582C8CAC583CAA8
:10007F00F0A3C8C582C8CAC583CADFE9DEE780BE60
:01015B0000A3
:100113007401FF3395E0FEFDFC080808E6CF2FF6D7
:1001230018E6CE3EF618E6CD3DF618E6CC3CF622B0
:00000001FF
