:0300000002022DCC
:0C022D00787FE4F6D8FD75812B02027486
:1002FB000B1D3F065B4F666D7D077F6F4008107FC0
:10030B00BFDFEFF7FBFDFE0418000000000808003C
:07031B00000A00000A0000C7
:10001600D2AFD2AAD28AE47B3CFAF9F8AF1BAE1A69
:10002600AD19AC1812017BAC00AD01AE02AF03E412
:100036007B0AFAF9F812017BAF038F0FE47B3CFAD7
:10004600F9F8AF1BAE1AAD19AC1812017BAC00ADB6
:1000560001AE02AF03E47B0AFAF9F812017B8F0EB8
:10006600E47B3CFAF9F8AF1BAE1AAD19AC181201D5
:100076007BE47B3CFAF9F812017BAC00AD01AE02E1
:10008600AF03E47B0AFAF9F812017BAF038F0CE4A5
:100096007B3CFAF9F8AF1BAE1AAD19AC1812017B0E
:1000A600E47B3CFAF9F812017BAC00AD01AE02AF7D
:1000B60003E47B0AFAF9F812017B8F0BE47B3CFA26
:1000C600F9F8AF1BAE1AAD19AC1812017BE47B3CF4
:1000D600FAF9F812017BE47B0AFAF9F812017BAF10
:1000E600038F09E47B3CFAF9F8AF1BAE1AAD19ACE5
:1000F6001812017BE47B3CFAF9F812017BE47B0AD7
:10010600FAF9F812017B8F08E4F51C7410251CF827
:10011600E6F5A07408251CF8E6241DF8E6F5807FB0
:10012600017E007D007C00120323E4F580051CE5BA
:090136001CC3940840D502001C12
:07000300D2AFD2AAD28A227B
:080323008F2B8E2A8D298C28F6
:10032B00782874FF12020FEC4D4E4F600BE4FBEB81
:08033B00C3945550EB0B80F751
:010343002297
:030013000202B92D
:0D02B900C0E0C0D075D000C002C003C00777
:1002C6007A0AAF021AEF600B7B00EBC3945550F22B
:1002D6000B80F7E51B2401F51BE4351AF51AE43506
:0A02E60019F519E43518F518C28B5C
:0B02F000D007D003D002D0D0D0E03205
:10023900020016E493A3F8E493A34003F68001F2C5
:1002490008DFF48029E493A3F85407240CC8C333C6
:10025900C4540F4420C8834004F456800146F6DF95
:10026900E4800B01020408102040809002FBE47E28
:10027900019360BCA3FF543F30E509541FFEE4938A
:10028900A360010ECF54C025E060A840B8E493A351
:10029900FAE493A3F8E493A3C8C582C8CAC583CA7C
:1002A900F0A3C8C582C8CAC583CADFE9DEE780BE34
:0103220000DA
:10013F0075F008758200EF2FFFEE33FECD33CDCC77
:10014F0033CCC58233C5829BED9AEC99E5829840FA
:10015F000CF582EE9BFEED9AFDEC99FC0FD5F0D6D7
:10016F00E4CEFBE4CDFAE4CCF9A88222B800C1B901
:10017F000059BA002DEC8BF084CFCECDFCE5F0CB3F
:10018F00F97818EF2FFFEE33FEED33FDEC33FCEB78
:10019F0033FB10D703994004EB99FB0FD8E5E4F933
:1001AF00FA227818EF2FFFEE33FEED33FDEC33FC20
:1001BF00C933C910D7059BE99A4007EC9BFCE99A14
:1001CF00F90FD8E0E4C9FAE4CCFB2275F010EF2F59
:1001DF00FFEE33FEED33FDCC33CCC833C810D70759
:1001EF009BEC9AE899400AED9BFDEC9AFCE899F894
:0E01FF000FD5F0DAE4CDFBE4CCFAE4C8F92227
:10020D007401FF3395E0FEFDFC080808E6CF2FF6DC
:10021D0018E6CE3EF618E6CD3DF618E6CC3CF622B5
:00000001FF
