:03000000020233C6
:0C023300787FE4F6D8FD75813702027A6E
:100340000B183F065B4F666D7D077F6F4008107F7F
:10035000BFDFEFF7FBFDFE040B00000000082300E9
:10036000000A00000A0000010F01010A0002080053
:01037000008C
:10001600120404E50A6018E50E2401F50EE4350D18
:10002600F50DE4350CF50CE4350BF50BE4F50AE4B7
:100036007B0AFAF9F8AF0EAE0DAD0CAC0B120181CE
:10004600AF038F2AE47B3CFAF9F8AF0EAE0DAD0C88
:10005600AC0B120181AC00AD01AE02AF03E47B0A2A
:10006600FAF9F81201818F29E47B3CFAF9F8AF0E10
:10007600AE0DAD0CAC0B120181E47B0AFAF9F81255
:100086000181AF038F27E47B3CFAF9F8AF0EAE0D82
:10009600AD0CAC0B120181E47B3CFAF9F81201813C
:1000A600AC00AD01AE02AF03E47B0AFAF9F8120127
:1000B600818F26E47B3CFAF9F8AF0EAE0DAD0CACA1
:1000C6000B120181E47B3CFAF9F8120181E47B0A08
:1000D600FAF9F8120181AF038F24E47B3CFAF9F8B0
:1000E600AF0EAE0DAD0CAC0B120181E47B3CFAF900
:1000F600F8120181E47B0AFAF9F81201818F23E5EF
:1001060023B40208B40405E4F523F524E4F52BE54D
:100116002BC3940840030200197410252BF8E6F54A
:10012600807423252BF8E62418F8E6F5A07F017ED7
:0F013600007D007C001203E3E4F5A0052B80D0D0
:0803A1008F338E328D318C3058
:1003A900783074FF120215EC4D4E4F600BE4FBEBF5
:0803B900C3945550EB0B80F7D3
:0103C1002219
:0803C2008F378E368D358C3427
:1003CA00783474FF120215EC4D4E4F600BE4FBEBD0
:0803DA00C3945550EB0B80F7B2
:0103E20022F8
:0803E3008F2F8E2E8D2D8C2C26
:1003EB00782C74FF120215EC4D4E4F600BE4FBEBB7
:0803FB00C3945550EB0B80F791
:0104030022D6
:10040400758901758C3C758AB0D28CD2A9D288D2F8
:08041400A8D28AD2AAD2AF22BD
:03000B000203727B
:04037200C0E0C0D057
:10037600758C3C758AB0E50F601C0509E5097002AD
:100386000508C39414E50864809480400975080044
:06039600750900750A0163
:05039C00D0D0D0E032DA
:03000300020300F5
:10030000C0E0C0D075D000C000C003C004C005C0AC
:1003100006C00775A000750E00750D00750C007500
:100320000B007FF47E017D007C001203A1C289D006
:1003300007D006D005D004D003D000D0D0D0E03212
:030013000202BF27
:1002BF00C0E0C0D075D000C000C003C004C005C0EE
:1002CF0006C00775A000E50FB40105750F00800388
:1002DF00750F017FF47E017D007C001203C2C28B7B
:1002EF00D007D006D005D004D003D000D0D0D0E0B6
:0102FF0032CC
:10023F00020016E493A3F8E493A34003F68001F2BF
:10024F0008DFF48029E493A3F85407240CC8C333C0
:10025F00C4540F4420C8834004F456800146F6DF8F
:10026F00E4800B0102040810204080900340E47EDC
:10027F00019360BCA3FF543F30E509541FFEE49384
:10028F00A360010ECF54C025E060A840B8E493A34B
:10029F00FAE493A3F8E493A3C8C582C8CAC583CA76
:1002AF00F0A3C8C582C8CAC583CADFE9DEE780BE2E
:01037100008B
:1001450075F008758200EF2FFFEE33FECD33CDCC71
:1001550033CCC58233C5829BED9AEC99E5829840F4
:100165000CF582EE9BFEED9AFDEC99FC0FD5F0D6D1
:10017500E4CEFBE4CDFAE4CCF9A88222B800C1B9FB
:100185000059BA002DEC8BF084CFCECDFCE5F0CB39
:10019500F97818EF2FFFEE33FEED33FDEC33FCEB72
:1001A50033FB10D703994004EB99FB0FD8E5E4F92D
:1001B500FA227818EF2FFFEE33FEED33FDEC33FC1A
:1001C500C933C910D7059BE99A4007EC9BFCE99A0E
:1001D500F90FD8E0E4C9FAE4CCFB2275F010EF2F53
:1001E500FFEE33FEED33FDCC33CCC833C810D70753
:1001F5009BEC9AE899400AED9BFDEC9AFCE899F88E
:0E0205000FD5F0DAE4CDFBE4CCFAE4C8F92220
:100213007401FF3395E0FEFDFC080808E6CF2FF6D6
:1002230018E6CE3EF618E6CD3DF618E6CC3CF622AF
:00000001FF
