:030000000200C338
:0C00C300787FE4F6D8FD75810E02000382
:10005A007FBFDFEFF7FBFDFE0042241818244200A1
:10006A0000007E12120C0000007E201008047E00A0
:08007A0000007F494936000037
:10000300E4F509E4F50AE4F508E50890005A93F5E8
:10001300A0E50975F008A42462F582E43400F583B1
:10002300E5822508F582E43583F583E493F5807F43
:10003300017E007D007C001200820508E508C39460
:100043000840C6050AE50AC3943240BA0509E50922
:07005300C3940440AE80A934
:080082008F0E8E0D8D0C8C0B0E
:10008A00780B74FF1200A5EC4D4E4F600BE4FBEBAE
:08009A00C3945550EB0B80F7F5
:0100A200223B
:1000A3007401FF3395E0FEFDFC080808E6CF2FF648
:1000B30018E6CE3EF618E6CD3DF618E6CC3CF62221
:00000001FF
